{
  "contractName": "sender",
  "abi": [
    {
      "inputs": [],
      "stateMutability": "nonpayable",
      "type": "constructor"
    },
    {
      "inputs": [
        {
          "internalType": "address payable",
          "name": "to",
          "type": "address"
        },
        {
          "internalType": "uint256",
          "name": "amt",
          "type": "uint256"
        }
      ],
      "name": "deposit",
      "outputs": [],
      "stateMutability": "payable",
      "type": "function"
    },
    {
      "inputs": [],
      "name": "getBalance",
      "outputs": [
        {
          "internalType": "uint256",
          "name": "",
          "type": "uint256"
        }
      ],
      "stateMutability": "view",
      "type": "function"
    },
    {
      "inputs": [
        {
          "internalType": "address payable",
          "name": "_to",
          "type": "address"
        }
      ],
      "name": "transferTo",
      "outputs": [],
      "stateMutability": "payable",
      "type": "function"
    },
    {
      "inputs": [
        {
          "internalType": "address payable",
          "name": "thatPerson",
          "type": "address"
        }
      ],
      "name": "getDepositedamt",
      "outputs": [
        {
          "internalType": "uint256",
          "name": "",
          "type": "uint256"
        }
      ],
      "stateMutability": "payable",
      "type": "function"
    }
  ],
  "bytecode": "0x608060405234801561000f575f80fd5b50335f806101000a81548173ffffffffffffffffffffffffffffffffffffffff021916908373ffffffffffffffffffffffffffffffffffffffff1602179055506104958061005c5f395ff3fe60806040526004361061003e575f3560e01c806312065fe01461004257806347e7ef241461006c578063a03fa7e314610088578063d29ff5f6146100a4575b5f80fd5b34801561004d575f80fd5b506100566100d4565b604051610063919061023c565b60405180910390f35b610086600480360381019061008191906102dd565b6100db565b005b6100a2600480360381019061009d919061031b565b610132565b005b6100be60048036038101906100b9919061031b565b6101de565b6040516100cb919061023c565b60405180910390f35b5f47905090565b8060015f8473ffffffffffffffffffffffffffffffffffffffff1673ffffffffffffffffffffffffffffffffffffffff1681526020019081526020015f205f8282546101279190610373565b925050819055505050565b5f8173ffffffffffffffffffffffffffffffffffffffff1634604051610157906103d3565b5f6040518083038185875af1925050503d805f8114610191576040519150601f19603f3d011682016040523d82523d5f602084013e610196565b606091505b50509050806101da576040517f08c379a00000000000000000000000000000000000000000000000000000000081526004016101d190610441565b60405180910390fd5b5050565b5f60015f8373ffffffffffffffffffffffffffffffffffffffff1673ffffffffffffffffffffffffffffffffffffffff1681526020019081526020015f20549050919050565b5f819050919050565b61023681610224565b82525050565b5f60208201905061024f5f83018461022d565b92915050565b5f80fd5b5f73ffffffffffffffffffffffffffffffffffffffff82169050919050565b5f61028282610259565b9050919050565b61029281610278565b811461029c575f80fd5b50565b5f813590506102ad81610289565b92915050565b6102bc81610224565b81146102c6575f80fd5b50565b5f813590506102d7816102b3565b92915050565b5f80604083850312156102f3576102f2610255565b5b5f6103008582860161029f565b9250506020610311858286016102c9565b9150509250929050565b5f602082840312156103305761032f610255565b5b5f61033d8482850161029f565b91505092915050565b7f4e487b71000000000000000000000000000000000000000000000000000000005f52601160045260245ffd5b5f61037d82610224565b915061038883610224565b92508282019050808211156103a05761039f610346565b5b92915050565b5f81905092915050565b50565b5f6103be5f836103a6565b91506103c9826103b0565b5f82019050919050565b5f6103dd826103b3565b9150819050919050565b5f82825260208201905092915050565b7f7472616e73616374696f6e2069732072657665727465640000000000000000005f82015250565b5f61042b6017836103e7565b9150610436826103f7565b602082019050919050565b5f6020820190508181035f8301526104588161041f565b905091905056fea2646970667358221220a780b6f6e21ca7cfc4088a922ea320cfc2b3ab7d478b0517b7ff8e632a4738ac64736f6c63430008160033",
  "immutableReferences": {},
  "source": "// SPDX-License-Identifier: MIT\npragma solidity ^0.8.20;\n\ncontract sender{\n//   receive() payable  external {}\n    address payable admin;\n    mapping (address => uint256) balance;\n    uint  amount;\n    constructor() {\n        admin = payable(msg.sender);\n    }\n    function deposit(address payable to ,uint amt)  payable  external{\n        balance[to] += amt;\n    } \n    function getBalance() view public returns (uint256){\n        return address(this).balance;\n\n    }\n    function transferTo(address payable _to) payable public{\n        (bool validation,) =  _to.call {value : msg.value} ('');\n        require(validation,\"transaction is reverted\");\n    }\n    function getDepositedamt(address payable thatPerson) public  payable returns(uint256){\n        return balance[thatPerson];\n    }\n}",
  "sourcePath": "/home/rajasekar/landingWebsite-w3/contracts/land.sol",
  "compiler": {
    "name": "solc",
    "version": "0.8.22+commit.4fc1097e.Emscripten.clang"
  },
  "schemaVersion": "3.4.16",
  "updatedAt": "2023-11-01T18:10:54.925Z",
  "devdoc": {
    "kind": "dev",
    "methods": {},
    "version": 1
  },
  "userdoc": {
    "kind": "user",
    "methods": {},
    "version": 1
  }
}