{
  "contractName": "VerifySignature",
  "abi": [
    {
      "inputs": [
        {
          "internalType": "address",
          "name": "_to",
          "type": "address"
        },
        {
          "internalType": "uint256",
          "name": "_amount",
          "type": "uint256"
        },
        {
          "internalType": "string",
          "name": "_message",
          "type": "string"
        },
        {
          "internalType": "uint256",
          "name": "_nonce",
          "type": "uint256"
        }
      ],
      "name": "getMessageHash",
      "outputs": [
        {
          "internalType": "bytes32",
          "name": "",
          "type": "bytes32"
        }
      ],
      "stateMutability": "pure",
      "type": "function"
    },
    {
      "inputs": [
        {
          "internalType": "bytes32",
          "name": "_messageHash",
          "type": "bytes32"
        }
      ],
      "name": "getEthSignedMessageHash",
      "outputs": [
        {
          "internalType": "bytes32",
          "name": "",
          "type": "bytes32"
        }
      ],
      "stateMutability": "pure",
      "type": "function"
    },
    {
      "inputs": [
        {
          "internalType": "address",
          "name": "_signer",
          "type": "address"
        },
        {
          "internalType": "address",
          "name": "_to",
          "type": "address"
        },
        {
          "internalType": "uint256",
          "name": "_amount",
          "type": "uint256"
        },
        {
          "internalType": "string",
          "name": "_message",
          "type": "string"
        },
        {
          "internalType": "uint256",
          "name": "_nonce",
          "type": "uint256"
        },
        {
          "internalType": "bytes",
          "name": "signature",
          "type": "bytes"
        }
      ],
      "name": "verify",
      "outputs": [
        {
          "internalType": "bool",
          "name": "",
          "type": "bool"
        }
      ],
      "stateMutability": "pure",
      "type": "function"
    },
    {
      "inputs": [
        {
          "internalType": "bytes32",
          "name": "_ethSignedMessageHash",
          "type": "bytes32"
        },
        {
          "internalType": "bytes",
          "name": "_signature",
          "type": "bytes"
        }
      ],
      "name": "recoverSigner",
      "outputs": [
        {
          "internalType": "address",
          "name": "",
          "type": "address"
        }
      ],
      "stateMutability": "pure",
      "type": "function"
    },
    {
      "inputs": [
        {
          "internalType": "bytes",
          "name": "sig",
          "type": "bytes"
        }
      ],
      "name": "splitSignature",
      "outputs": [
        {
          "internalType": "bytes32",
          "name": "r",
          "type": "bytes32"
        },
        {
          "internalType": "bytes32",
          "name": "s",
          "type": "bytes32"
        },
        {
          "internalType": "uint8",
          "name": "v",
          "type": "uint8"
        }
      ],
      "stateMutability": "pure",
      "type": "function"
    }
  ],
  "bytecode": "0x608060405234801561000f575f80fd5b50610b088061001d5f395ff3fe608060405234801561000f575f80fd5b5060043610610055575f3560e01c806397aba7f914610059578063a35f8a4014610089578063a7bb5803146100b9578063abe5026a146100eb578063fa5408011461011b575b5f80fd5b610073600480360381019061006e9190610463565b61014b565b60405161008091906104fc565b60405180910390f35b6100a3600480360381019061009e9190610610565b6101b5565b6040516100b0919061069f565b60405180910390f35b6100d360048036038101906100ce91906106b8565b6101ed565b6040516100e29392919061071a565b60405180910390f35b6101056004803603810190610100919061074f565b610252565b604051610112919061082a565b60405180910390f35b61013560048036038101906101309190610843565b6102b4565b604051610142919061069f565b60405180910390f35b5f805f80610158856101ed565b9250925092506001868285856040515f8152602001604052604051610180949392919061086e565b6020604051602081039080840390855afa1580156101a0573d5f803e3d5ffd5b50505060206040510351935050505092915050565b5f848484846040516020016101cd9493929190610982565b604051602081830303815290604052805190602001209050949350505050565b5f805f6041845114610234576040517f08c379a000000000000000000000000000000000000000000000000000000000815260040161022b90610a25565b60405180910390fd5b602084015192506040840151915060608401515f1a90509193909250565b5f80610260878787876101b5565b90505f61026c826102b4565b90508873ffffffffffffffffffffffffffffffffffffffff1661028f828661014b565b73ffffffffffffffffffffffffffffffffffffffff1614925050509695505050505050565b5f816040516020016102c69190610aad565b604051602081830303815290604052805190602001209050919050565b5f604051905090565b5f80fd5b5f80fd5b5f819050919050565b610306816102f4565b8114610310575f80fd5b50565b5f81359050610321816102fd565b92915050565b5f80fd5b5f80fd5b5f601f19601f8301169050919050565b7f4e487b71000000000000000000000000000000000000000000000000000000005f52604160045260245ffd5b6103758261032f565b810181811067ffffffffffffffff821117156103945761039361033f565b5b80604052505050565b5f6103a66102e3565b90506103b2828261036c565b919050565b5f67ffffffffffffffff8211156103d1576103d061033f565b5b6103da8261032f565b9050602081019050919050565b828183375f83830152505050565b5f610407610402846103b7565b61039d565b9050828152602081018484840111156104235761042261032b565b5b61042e8482856103e7565b509392505050565b5f82601f83011261044a57610449610327565b5b813561045a8482602086016103f5565b91505092915050565b5f8060408385031215610479576104786102ec565b5b5f61048685828601610313565b925050602083013567ffffffffffffffff8111156104a7576104a66102f0565b5b6104b385828601610436565b9150509250929050565b5f73ffffffffffffffffffffffffffffffffffffffff82169050919050565b5f6104e6826104bd565b9050919050565b6104f6816104dc565b82525050565b5f60208201905061050f5f8301846104ed565b92915050565b61051e816104dc565b8114610528575f80fd5b50565b5f8135905061053981610515565b92915050565b5f819050919050565b6105518161053f565b811461055b575f80fd5b50565b5f8135905061056c81610548565b92915050565b5f67ffffffffffffffff82111561058c5761058b61033f565b5b6105958261032f565b9050602081019050919050565b5f6105b46105af84610572565b61039d565b9050828152602081018484840111156105d0576105cf61032b565b5b6105db8482856103e7565b509392505050565b5f82601f8301126105f7576105f6610327565b5b81356106078482602086016105a2565b91505092915050565b5f805f8060808587031215610628576106276102ec565b5b5f6106358782880161052b565b94505060206106468782880161055e565b935050604085013567ffffffffffffffff811115610667576106666102f0565b5b610673878288016105e3565b92505060606106848782880161055e565b91505092959194509250565b610699816102f4565b82525050565b5f6020820190506106b25f830184610690565b92915050565b5f602082840312156106cd576106cc6102ec565b5b5f82013567ffffffffffffffff8111156106ea576106e96102f0565b5b6106f684828501610436565b91505092915050565b5f60ff82169050919050565b610714816106ff565b82525050565b5f60608201905061072d5f830186610690565b61073a6020830185610690565b610747604083018461070b565b949350505050565b5f805f805f8060c08789031215610769576107686102ec565b5b5f61077689828a0161052b565b965050602061078789828a0161052b565b955050604061079889828a0161055e565b945050606087013567ffffffffffffffff8111156107b9576107b86102f0565b5b6107c589828a016105e3565b93505060806107d689828a0161055e565b92505060a087013567ffffffffffffffff8111156107f7576107f66102f0565b5b61080389828a01610436565b9150509295509295509295565b5f8115159050919050565b61082481610810565b82525050565b5f60208201905061083d5f83018461081b565b92915050565b5f60208284031215610858576108576102ec565b5b5f61086584828501610313565b91505092915050565b5f6080820190506108815f830187610690565b61088e602083018661070b565b61089b6040830185610690565b6108a86060830184610690565b95945050505050565b5f8160601b9050919050565b5f6108c7826108b1565b9050919050565b5f6108d8826108bd565b9050919050565b6108f06108eb826104dc565b6108ce565b82525050565b5f819050919050565b61091061090b8261053f565b6108f6565b82525050565b5f81519050919050565b5f81905092915050565b5f5b8381101561094757808201518184015260208101905061092c565b5f8484015250505050565b5f61095c82610916565b6109668185610920565b935061097681856020860161092a565b80840191505092915050565b5f61098d82876108df565b60148201915061099d82866108ff565b6020820191506109ad8285610952565b91506109b982846108ff565b60208201915081905095945050505050565b5f82825260208201905092915050565b7f696e76616c6964207369676e6174757265206c656e67746800000000000000005f82015250565b5f610a0f6018836109cb565b9150610a1a826109db565b602082019050919050565b5f6020820190508181035f830152610a3c81610a03565b9050919050565b7f19457468657265756d205369676e6564204d6573736167653a0a3332000000005f82015250565b5f610a77601c83610920565b9150610a8282610a43565b601c82019050919050565b5f819050919050565b610aa7610aa2826102f4565b610a8d565b82525050565b5f610ab782610a6b565b9150610ac38284610a96565b6020820191508190509291505056fea264697066735822122069fc7abf638c535d3e1700962678571d8adc2cecf983380f3c18869387d08d6564736f6c63430008160033",
  "immutableReferences": {},
  "source": "// SPDX-License-Identifier: MIT\npragma solidity ^0.8.20;\n\n/* Signature Verification\n\nHow to Sign and Verify\n# Signing\n1. Create message to sign\n2. Hash the message\n3. Sign the hash (off chain, keep your private key secret)\n\n# Verify\n1. Recreate hash from the original message\n2. Recover signer from signature and hash\n3. Compare recovered signer to claimed signer\n*/\n\ncontract VerifySignature {\n\n    function getMessageHash(\n        address _to,\n        uint _amount,\n        string memory _message,\n        uint _nonce\n    ) public pure returns (bytes32) {\n        return keccak256(abi.encodePacked(_to, _amount, _message, _nonce));\n    }\n\n    function getEthSignedMessageHash(\n        bytes32 _messageHash\n    ) public pure returns (bytes32) {\n        return\n            keccak256(\n                abi.encodePacked(\"\\x19Ethereum Signed Message:\\n32\", _messageHash)\n            );\n    }\n    function verify(\n        address _signer,\n        address _to,\n        uint _amount,\n        string memory _message,\n        uint _nonce,\n        bytes memory signature\n    ) public pure returns (bool) {\n        bytes32 messageHash = getMessageHash(_to, _amount, _message, _nonce);\n        bytes32 ethSignedMessageHash = getEthSignedMessageHash(messageHash);\n\n        return recoverSigner(ethSignedMessageHash, signature) == _signer;\n    }\n\n    function recoverSigner(\n        bytes32 _ethSignedMessageHash,\n        bytes memory _signature\n    ) public pure returns (address) {\n        (bytes32 r, bytes32 s, uint8 v) = splitSignature(_signature);\n\n        return ecrecover(_ethSignedMessageHash, v, r, s);\n    }\n\n    function splitSignature(\n        bytes memory sig\n    ) public pure returns (bytes32 r, bytes32 s, uint8 v) {\n        require(sig.length == 65, \"invalid signature length\");\n\n        assembly {\n            r := mload(add(sig, 32))\n            s := mload(add(sig, 64))\n            v := byte(0, mload(add(sig, 96)))\n        }\n    }\n}\n",
  "sourcePath": "/home/rajasekar/landingWebsite-w3/contracts/verifySign.sol",
  "compiler": {
    "name": "solc",
    "version": "0.8.22+commit.4fc1097e.Emscripten.clang"
  },
  "schemaVersion": "3.4.16",
  "updatedAt": "2023-11-01T18:10:54.928Z",
  "devdoc": {
    "kind": "dev",
    "methods": {},
    "version": 1
  },
  "userdoc": {
    "kind": "user",
    "methods": {},
    "version": 1
  }
}